:100000000C943B010C946C010C946C010C946C01ED
:100010000C946C010C946C010C946C010C946C01AC
:100020000C946C010C946C010C946C010C946C019C
:100030000C946C010C9441060C946C010C946C01B2
:100040000C946C010C946C010C946C010C946C017C
:100050000C946C010C946C010C946C010C94F705DD
:100060000C946C010C94C1050C9497050C946C01D4
:100070000C946C010C946C010C946C010C946C014C
:100080000C946C010C946C010C946C010C946C013C
:100090000C946C010C946C010C946C010C946C012C
:1000A0000C946C010C946C010C946C010C946C011C
:1000B0000C946C010C946C010C946C010C946C010C
:1000C0000C946C010C946C010C946C010C946C01FC
:1000D0000C946C010C946C010C946C010C946C01EC
:1000E0000C946C010C9439030C94C9010C94A50375
:1000F0000C9410030C9414030C94F6020C94DD0180
:100100000C946A060C9417030C9435030C94230288
:100110000C9447030C9408030C9443030C94F504CB
:100120000C942B030C943D030C9421030C94A40316
:100130000C94BA010C9427030C942F030C941D0308
:100140000C94EB010C9470020C94F1020C940C03CF
:100150000C948D0100000A0B02090C0D0E08070318
:10016000040100000000000000000000000000008A
:10017000000000000000000000000000000000007F
:10018000121110000000000000000000000000003C
:10019000000000000000000000000000210024001A
:1001A00027002A002D003000330001010000040167
:1001B00007010A01000020002300260029002C006E
:1001C0002F003200000100000301060109010000B8
:1001D0002200250028002B002E00310034000201EF
:1001E0000000050108010B010505050507050808C4
:1001F0000808020202020A0A0808040404040101B1
:1002000001010101010103030303030303030407C5
:1002100007070C0C0C0C0C0C0C0C0202020206065C
:100220000606060606060B0B0B0B0B0B0B0B01024F
:1002300010202008081020401020408002010201F8
:1002400008040201010204081020408080402010B0
:100250000804020180040201804020100804020109
:100260000804020101020408102040800102040871
:10027000102040806A0611241FBECFEFD1E2DEBFFE
:10028000CDBF00E00CBF12E0A0E0B2E0EEEDF2E185
:1002900000E00BBF02C007900D92A237B107D9F75B
:1002A00023E0A2E7B2E001C01D92A734B207E1F754
:1002B00011E0CBE3D1E000E006C021970109802FD7
:1002C000FE010E946509CA33D10780E00807A9F73B
:1002D0000E9409070C946D090C94000090E0FC0149
:1002E000E25DFD4F249188519E4FFC01849188234B
:1002F00099F090E0880F991FFC01E656FE4FA591FA
:10030000B491FC01E253FE4F859194918FB7F8941C
:10031000EC91E22BEC938FBF0895AF92BF92CF92F6
:10032000DF92EF92FF920F931F93CF93DF936C01B5
:100330007B018B01040F151FEB015E01AE18BF0896
:10034000C017D10759F06991D601ED91FC91019048
:10035000F081E02DC6011995892B79F7C501DF9150
:10036000CF911F910F91FF90EF90DF90CF90BF90B2
:10037000AF900895FC01538D448D252F30E0842FDC
:1003800090E0821B930B541710F0CF9608950197BD
:100390000895FC01918D828D981761F0A28DAE0FAA
:1003A000BF2FB11D5D968C91928D9F5F9F73928F31
:1003B00090E008958FEF9FEF0895FC01918D828D5D
:1003C000981731F0828DE80FF11D858D90E008952A
:1003D0008FEF9FEF0895FC01918D228D892F90E082
:1003E000805C9F4F821B91098F73992708958FE737
:1003F00092E00E94EB0121E0892B09F420E0822F9A
:100400000895FC01A48DA80FB92FB11DA35ABF4FA9
:100410002C91848D90E001968F739927848FA68903
:10042000B7892C93A089B1898C91837080648C9357
:10043000938D848D981306C00288F389E02D808106
:100440008F7D80830895EF92FF920F931F93CF9338
:10045000DF93EC0181E0888F9B8D8C8D98131AC0FF
:10046000E889F989808185FF15C09FB7F894EE89E6
:10047000FF896083E889F989808183708064808343
:100480009FBF81E090E0DF91CF911F910F91FF908E
:10049000EF900895F62E0B8D10E00F5F1F4F0F7336
:1004A0001127E02E8C8D8E110CC00FB607FCFACFF1
:1004B000E889F989808185FFF5CFCE010E9401028C
:1004C000F1CFEB8DEC0FFD2FF11DE35AFF4FF082C2
:1004D0009FB7F8940B8FEA89FB8980818062CFCF28
:1004E000CF93DF93EC01888D8823B9F0AA89BB896B
:1004F000E889F9898C9185FD03C0808186FD0DC056
:100500000FB607FCF7CF8C9185FFF2CF808185FF76
:10051000EDCFCE010E940102E9CFDF91CF91089586
:1005200080E090E0892B29F00E94F70181110E9460
:10053000000080E090E0892B49F080E090E0892B7A
:1005400029F00E94000081110E94000080E090E0EC
:10055000892B49F080E090E0892B29F00E9400006F
:1005600081110E94000080E090E0892B49F080E03A
:1005700090E0892B29F00E94000081110C9400006A
:100580000895282F30E0F901EC5AFE4F9491F901BB
:10059000E25DFD4F449128513E4FF9012491222301
:1005A00009F435C0992311F191509231F8F4E92FF3
:1005B000F0E08827E152FD4F8F4F0C94650910033E
:1005C0001403F10208030C03F60217031D032103B1
:1005D00027032B032F0335033903F6023D0343039F
:1005E0004703809180008F7780938000E22FF0E0B6
:1005F000EE0FFF1FE253FE4FA591B4918FB7F89411
:10060000EC91611148C040954E234C938FBF0895E3
:10061000809180008F7DE8CF80918000877FE4CF3C
:1006200084B58F7784BDE2CF84B58F7DFBCF809179
:10063000B0008F778093B000D9CF8091B0008F7DCC
:10064000F9CF809190008F7780939000CFCF8091E9
:1006500090008F7DF9CF80919000877FF5CF8091BA
:10066000A0008F778093A000C1CF8091A0008F7DE4
:10067000F9CF8091A000877FF5CF809120018F77FF
:1006800080932001B3CF809120018F7DF9CF80919D
:100690002001877FF5CF4E2BB8CF3FB7F8948091DC
:1006A0007B0290917C02A0917D02B0917E0226B5E2
:1006B000A89B05C02F3F19F00196A11DB11D3FBF9A
:1006C000BA2FA92F982F8827BC01CD01620F711D69
:1006D000811D911D42E0660F771F881F991F4A9563
:1006E000D1F708958F929F92AF92BF92CF92DF92EF
:1006F000EF92FF924B015C010E944D036B017C0164
:100700000E944D036C197D098E099F09683E734054
:1007100081059105A8F321E0821A9108A108B1088A
:1007200088EEC80E83E0D81EE11CF11C81149104F0
:10073000A104B10429F7FF90EF90DF90CF90BF9014
:10074000AF909F908F900895089590E080E0089575
:10075000CF93DF93EC0160E08E810E94C10261E0E3
:100760008E810E94C10260E08E810E94C1028BE8EE
:1007700091E00197F1F7DF91CF910895CF92DF9249
:10078000EF92FF920F931F93CF93DF936C017C0145
:1007900087E0E80EF11CD0E0C0E0062F10E0B801C1
:1007A0000C2E02C0759567950A94E2F76170F70107
:1007B00081917F010E94C1022196C430D10579F751
:1007C000C601DF91CF911F910F91FF90EF90DF90C5
:1007D000CF900C94A803CF92DF92EF92FF920F93E9
:1007E0001F93CF93DF93EC01F62E642F8C810E9430
:1007F000C1028D818F3F19F060E00E94C1020F2D70
:1008000010E08F8584FF25C06E0187E0C80ED11CE3
:10081000F12CE12CB8010E2C02C0759567950A9455
:10082000E2F76170F60181916F010E94C102FFEF52
:10083000EF1AFF0A88E0E816F10461F7CE01DF91B4
:10084000CF911F910F91FF90EF90DF90CF900C947C
:10085000A803B80184E0759567958A95E1F7CE0104
:100860000E94BE036F2DCE01DF91CF911F910F919A
:10087000FF90EF90DF90CF900C94BE0340E0682F84
:100880008FE293E00C94EB03CF93DF93823029F453
:1008900090913E03986090933E03809342031092A0
:1008A000430380E48093440380E18093450380E523
:1008B00080934603809133030E946E01809134033C
:1008C0008F3F11F00E946E01809135030E946E01EE
:1008D000CFE2D3E09E012F52334080913E0384FD4E
:1008E0000AC084E090E02196281739073CF48E81F5
:1008F0000E946E01EFCF88E090E0F5CF8BE39DE0A2
:100900000197F1F760E0809133030E94C10260E03B
:10091000809135030E94C102809134038F3F19F00A
:1009200060E00E94C10280913E0384FD39C063E013
:100930008FE293E00E94BE03CBE4D6E4CE010197A0
:10094000F1F763E08FE293E00E94BE032197F1F795
:1009500063E08FE293E00E94BE0383E592E001979B
:10096000F1F762E08FE293E00E94BE0380913E03C4
:1009700080620E943E0484E080933F038CE00E94EA
:100980003E0481E00E943E048BE39FE10197F1F772
:1009900082E08093400386E0DF91CF910C943E0487
:1009A00080620E943E048BE496E40197F1F7809107
:1009B0003E0380620E943E0483E592E00197F1F7D6
:1009C00080913E0380620E943E04D0CF909142030A
:1009D000691710F06FEF690FE62FF0E0E15DFC4F53
:1009E0009489890F80680C943E0441E00E94EB03D7
:1009F00081E090E00895FB0101900020E9F7319734
:100A0000AF01461B570BDC01ED91FC910280F38195
:100A1000E02D19944F925F926F927F928F929F92E6
:100A2000AF92BF92CF92DF92EF92FF920F931F93FC
:100A3000CF93DF93CDB7DEB7A1970FB6F894DEBFA3
:100A40000FBECDBF8C016B01770FEE08FF08F7FEDC
:100A500049C0DC01ED91FC910190F081E02D6DE247
:100A600019955C0122273327A9012C193D094E094C
:100A70005F0919A2FE01B1967F019AE0492E512C1F
:100A8000612C712CCA01B901A30192010E94430992
:100A9000605DD7016E937D0121153105410551053A
:100AA00089F790E080E0109721F0BD01C8010E9415
:100AB000FB048A0D9B1DA1960FB6F894DEBF0FBEF6
:100AC000CDBFDF91CF911F910F91FF90EF90DF90FD
:100AD000CF90BF90AF909F908F907F906F905F90DE
:100AE0004F900895A701960119A2FE01B1967F01CA
:100AF0008AE0882E912CA12CB12CCA01B901A50144
:100B000094010E944309605DD7016E937D01211518
:100B100031054105510589F790E080E0109759F2C1
:100B2000BD01C8010E94FB04C6CF0C94FB041F92B8
:100B30000F920FB60F9211240BB60F922F933F9383
:100B40004F935F936F937F938F939F93AF93BF93D5
:100B5000EF93FF938FE792E00E940102FF91EF91E4
:100B6000BF91AF919F918F917F916F915F914F91C5
:100B70003F912F910F900BBE0F900FBE0F901F90C3
:100B800018951F920F920FB60F9211240BB60F9269
:100B90002F938F939F93EF93FF93E0918F02F091A8
:100BA00090028081E0919502F091960282FD1DC035
:100BB0009081809198028F5F8F73209199028217A4
:100BC00041F0E0919802F0E0E158FD4F958F80935D
:100BD0009802FF91EF919F918F912F910F900BBEF3
:100BE0000F900FBE0F901F9018958081F2CF1F922B
:100BF0000F920FB60F9211242F933F938F939F93D1
:100C0000AF93BF938091770290917802A09179027F
:100C1000B0917A023091760223E0230F2D3758F5F8
:100C20000196A11DB11D20937602809377029093C7
:100C30007802A0937902B0937A0280917B0290911E
:100C40007C02A0917D02B0917E020196A11DB11D92
:100C500080937B0290937C02A0937D02B0937E02EE
:100C6000BF91AF919F918F913F912F910F900FBEA8
:100C70000F901F90189526E8230F0296A11DB11D15
:100C8000D2CF1F920F920FB60F9211240BB60F9274
:100C90002F933F934F935F936F937F938F939F9384
:100CA000AF93BF93EF93FF93F0E0E0E01995FF91CE
:100CB000EF91BF91AF919F918F917F916F915F91D4
:100CC0004F913F912F910F900BBE0F900FBE0F9041
:100CD0001F901895CF93DF93EFE7F2E01382128213
:100CE00088EE93E0A0E0B0E084839583A683B78389
:100CF00084E092E09183808385EC90E095878487FF
:100D000084EC90E09787868780EC90E0918B808BD5
:100D100081EC90E0938B828B82EC90E0958B848BBE
:100D200086EC90E0978B868B118E128E138E148E2C
:100D3000EFE2F3E01382128286E192E091838083F6
:100D40008BE084838FEF85838AE0868389E08783C5
:100D500088E0808787E0818786E082871386148613
:100D600015861686178681E00E944404EBE3F2E0C4
:100D70002491ACE1B3E014962C931497EAE3F2E0EB
:100D8000E4911596EC93159785EF91E0FC01349171
:100D9000E32FF0E0EE0FFF1FE253FE4F4591549119
:100DA00017965C934E931697E4EFF1E0E491F0E030
:100DB000EE0FFF1FEC54FE4F4591549119965C9332
:100DC0004E931897FC018491E82FF0E0EE0FFF1F7F
:100DD000E656FE4FC591D4911B96DC93CE931A979D
:100DE00052961C9252978DE89FE61D969C938E9387
:100DF0001C97E8812E2B28831696ED91FC9117976E
:100E0000908114968C91809589238083DF91CF9176
:100E10000895789484B5826084BD84B5816084BD72
:100E200085B5826085BD85B5816085BD80916E0088
:100E3000816080936E0010928100809181008260B9
:100E400080938100809181008160809381008091F6
:100E500080008160809380008091B10084608093E5
:100E6000B1008091B00081608093B00080919100CA
:100E700082608093910080919100816080939100C5
:100E8000809190008160809390008091A1008260A9
:100E90008093A1008091A10081608093A100809146
:100EA000A00081608093A0008091210182608093E6
:100EB0002101809121018160809321018091200195
:100EC00081608093200180917A00846080937A0011
:100ED00080917A00826080937A0080917A008160AC
:100EE00080937A0080917A00806880937A001092D3
:100EF000C10082E00E94440460E080E00E94E604B9
:100F00006EE172E08FE293E00E94950561E080E07F
:100F10000E94E60465E272E08FE293E00E9495058C
:100F200064EF71E080E090E00E94720360E080E096
:100F30000E94E60468E372E08FE293E00E94950568
:100F400061E080E00E94E6046DE372E08FE293E0EE
:100F50000E949505E0918F02F091900282E08083DB
:100F6000E0918B02F0918C021082E0918D02F09161
:100F70008E028FEC808310929702E0919302F091A1
:100F8000940286E08083E0919102F0919202808148
:100F900080618083E0919102F0919202808188606B
:100FA0008083E0919102F091920280818068808339
:100FB000E0919102F091920280818F7D808382E0A6
:100FC0000E946E0183E00E946E0184E00E946E0127
:100FD00085E00E946E0168E572E080E090E00E948A
:100FE000720381E00E943E048BE39FE10197F1F7D9
:100FF000CBE2D0E089E3C82ED12CE12CF12C68EEB5
:1010000073E080E090E00E947203E0912603F0918B
:101010002703808190912003892B8083E091220314
:10102000F0912303808190912003892B8083CE014E
:101030000197F1F7E0912203F091230390818091D1
:10104000200380958923808380912E03882351F08B
:10105000E0912603F09127039081809120038095F1
:1010600089238083E0912403F0912503808190916E
:101070002103892309F464C090E080E0BC0190E082
:1010800080E0A70196010E9443094901890168E4B3
:1010900072E08FE792E00E949505B4018FE792E03D
:1010A0000E940A0567E572E08FE792E00E949505CD
:1010B00060E772E08FE792E00E94950560E080E0D3
:1010C0000E94E6046AE572E08FE293E00E949505D3
:1010D00061E080E00E94E60469E672E08FE293E05E
:1010E0000E949505B4018FE293E00E940A0561E039
:1010F0008EE00E94E60467E572E08FE293E00E94D2
:101100009505C40101978436910508F08BC061E014
:1011100082E00E94C10260E083E00E94C10260E0C0
:1011200084E00E94C10260E085E00E94C10268EC98
:1011300070E080E090E00E9472030E9490025FCF16
:101140000E944D03AB01BC018091280390912903BB
:10115000B0E0A0E08855994EAF4FBF4F840F951F68
:10116000A61FB71F80932A0390932B03A0932C03F1
:10117000B0932D03E0912403F09125038081909199
:101180002103892381F40E944D0300912A031091C9
:101190002B0320912C0330912D03061717072807E6
:1011A000390740F769CF0E944D0320912803309101
:1011B0002903620F731F811D911D60932A03709391
:1011C0002B0380932C0390932D03E0912403F09143
:1011D0002503808190912103892381F00E944D0392
:1011E00000912A0310912B0320912C0330912D03A1
:1011F000061717072807390740F73ECF0E944D030F
:101200002091280330912903A901455051092091CB
:101210002A0330912B03FA01E21BF30BCF01860F57
:10122000971F2CCFC40185569109C29778F461E0CD
:1012300083E00E94C10260E084E00E94C10260E09D
:1012400085E00E94C10260E082E06FCFF7E98F1A6B
:10125000910882E38816910438F461E084E00E94EA
:10126000C10260E083E0E9CF0D3211400CF465CF9C
:1012700061E085E00E94C10260E084E00E94C1025A
:1012800060E083E0DECFA1E21A2EAA1BBB1BFD01AA
:101290000DC0AA1FBB1FEE1FFF1FA217B307E40755
:1012A000F50720F0A21BB30BE40BF50B661F771FAD
:1012B000881F991F1A9469F760957095809590958D
:1012C0009B01AC01BD01CF010895EE0FFF1F881FE8
:0E12D0008BBF0790F691E02D1994F894FFCF94
:1012DE000000000023028D01BA017002EB01C9016A
:1012EE00DD0100000000F5048D01A503A4034159A2
:1012FE004F212121004D656E67756B7572204B6510
:10130E0064616C616D616E00556B75720053656E34
:10131E00736F722041697200486173696C20536566
:10132E006E736F723A2000636D004B6574696E6761
:10133E006769616E204169720054696E6767693A28
:02134E0020007D
:00000001FF
